{
  "transactions": [
    {
      "hash": "0xec1a995c08763aff0c06b80d901fc9a99d3e5ac44933d8b12833a43fcb85c3fc",
      "transactionType": "CALL",
      "contractName": "MarketFactory",
      "contractAddress": "0xDe8304b5399A6f37168Fa1F01D43A2f7f3c43100",
      "function": "createNewMarket((bool,string,string,string,(bool,uint8,address,bytes32,bytes32[])))",
      "arguments": [
        "(true, \"ETH\", \"BRRR\", \"BRRR\", (false, 0, 0x0000000000000000000000000000000000000000, 0x0000000000000000000000000000000000000000000000000000000000000000, []))"
      ],
      "transaction": {
        "type": "0x02",
        "from": "0x02a2012c36644f4e4b36a14ebe13e23c96f4c5b6",
        "to": "0xde8304b5399a6f37168fa1f01d43a2f7f3c43100",
        "gas": "0x9d9a1",
        "value": "0x7af73c1501",
        "data": "0x598445930000000000000000000000000000000000000000000000000000000000000020000000000000000000000000000000000000000000000000000000000000000100000000000000000000000000000000000000000000000000000000000000a000000000000000000000000000000000000000000000000000000000000000e000000000000000000000000000000000000000000000000000000000000001200000000000000000000000000000000000000000000000000000000000000160000000000000000000000000000000000000000000000000000000000000000345544800000000000000000000000000000000000000000000000000000000000000000000000000000000000000000000000000000000000000000000000004425252520000000000000000000000000000000000000000000000000000000000000000000000000000000000000000000000000000000000000000000000044252525200000000000000000000000000000000000000000000000000000000000000000000000000000000000000000000000000000000000000000000000000000000000000000000000000000000000000000000000000000000000000000000000000000000000000000000000000000000000000000000000000000000000000000000000000000000000000000000000000000000000000000000000000000000000000000000000000000000000000000000000000000000000000a00000000000000000000000000000000000000000000000000000000000000000",
        "nonce": "0x159",
        "accessList": []
      },
      "additionalContracts": [],
      "isFixedGasLimit": false
    }
  ],
  "receipts": [],
  "libraries": [],
  "pending": [
    "0xec1a995c08763aff0c06b80d901fc9a99d3e5ac44933d8b12833a43fcb85c3fc"
  ],
  "returns": {},
  "timestamp": 1715190468,
  "chain": 84532,
  "multi": false,
  "commit": "b05b447"
}