{
  "transactions": [
    {
      "hash": "0xd195516bf081f7932dd62ed722e5d9db5ed0ce55a16b5db6a762259f1f2762d2",
      "transactionType": "CALL",
      "contractName": "MarketFactory",
      "contractAddress": "0xDe8304b5399A6f37168Fa1F01D43A2f7f3c43100",
      "function": "createNewMarket((bool,string,string,string,(bool,uint8,address,bytes32,bytes32[])))",
      "arguments": [
        "(true, \"ETH\", \"BRRR\", \"BRRR\", (false, 0, 0x0000000000000000000000000000000000000000, 0x0000000000000000000000000000000000000000000000000000000000000000, []))"
      ],
      "transaction": {
        "type": "0x02",
        "from": "0x02a2012c36644f4e4b36a14ebe13e23c96f4c5b6",
        "to": "0xde8304b5399a6f37168fa1f01d43a2f7f3c43100",
        "gas": "0x9d9a1",
        "value": "0x5af3107a4000",
        "data": "0x598445930000000000000000000000000000000000000000000000000000000000000020000000000000000000000000000000000000000000000000000000000000000100000000000000000000000000000000000000000000000000000000000000a000000000000000000000000000000000000000000000000000000000000000e000000000000000000000000000000000000000000000000000000000000001200000000000000000000000000000000000000000000000000000000000000160000000000000000000000000000000000000000000000000000000000000000345544800000000000000000000000000000000000000000000000000000000000000000000000000000000000000000000000000000000000000000000000004425252520000000000000000000000000000000000000000000000000000000000000000000000000000000000000000000000000000000000000000000000044252525200000000000000000000000000000000000000000000000000000000000000000000000000000000000000000000000000000000000000000000000000000000000000000000000000000000000000000000000000000000000000000000000000000000000000000000000000000000000000000000000000000000000000000000000000000000000000000000000000000000000000000000000000000000000000000000000000000000000000000000000000000000000000a00000000000000000000000000000000000000000000000000000000000000000",
        "nonce": "0x15c",
        "accessList": []
      },
      "additionalContracts": [],
      "isFixedGasLimit": false
    }
  ],
  "receipts": [
    {
      "transactionHash": "0xd195516bf081f7932dd62ed722e5d9db5ed0ce55a16b5db6a762259f1f2762d2",
      "transactionIndex": "0x1",
      "blockHash": "0xf01bfee5c612c1b6af34075351d06062a09ea3f9807170e1fb28fd1ca20331e3",
      "blockNumber": "0x942e9d",
      "from": "0x02A2012c36644f4e4b36A14EBe13E23c96f4C5b6",
      "to": "0xDe8304b5399A6f37168Fa1F01D43A2f7f3c43100",
      "cumulativeGasUsed": "0x807fd",
      "gasUsed": "0x73bca",
      "contractAddress": null,
      "logs": [
        {
          "address": "0xDe8304b5399A6f37168Fa1F01D43A2f7f3c43100",
          "topics": [
            "0xe045586a307e978631df5e496ba879bb6c5a5dbc214bb07f79151a7953735bd4",
            "0xf81080dfa4919c3cb8a33256444d26a23959d37befa1265f1bf6650ad4e9e1c0",
            "0xaaaebeba3810b1e6b70781f14b2d72c1cb89c0b2b320c43bb67ff79f562f5ff4"
          ],
          "data": "0x",
          "blockHash": "0xf01bfee5c612c1b6af34075351d06062a09ea3f9807170e1fb28fd1ca20331e3",
          "blockNumber": "0x942e9d",
          "transactionHash": "0xd195516bf081f7932dd62ed722e5d9db5ed0ce55a16b5db6a762259f1f2762d2",
          "transactionIndex": "0x1",
          "logIndex": "0x0",
          "removed": false
        }
      ],
      "status": "0x1",
      "logsBloom": "0x00000000000000000000000000000000000000000000000000000000000000000000000000000000000000000000000000000000000000000000000000000000000000000000000000000000100000000000000000000000000000000000080000000000000000000000000000000000002000040000000008000000000000000000000000000000000000008000000100000000000000000000000000000000000000000000000200000000000000000020000000008000000000000000000000000000000000000000000000000000000000000000000000001000000000000000080000000000000000000000000000000000000000000000000000000000",
      "type": "0x2",
      "effectiveGasPrice": "0xb2d05efe"
    }
  ],
  "libraries": [],
  "pending": [],
  "returns": {},
  "timestamp": 1715190814,
  "chain": 84532,
  "multi": false,
  "commit": "b05b447"
}