{
  "transactions": [
    {
      "hash": "0xefb8f2551857bbc51f4f603bb59b9808a065dc3942fbf30552a052945ff7ff52",
      "transactionType": "CALL",
      "contractName": "MarketFactory",
      "contractAddress": "0xDe8304b5399A6f37168Fa1F01D43A2f7f3c43100",
      "function": "createNewMarket((bool,string,string,string,(bool,uint8,address,bytes32,bytes32[])))",
      "arguments": [
        "(true, \"ETH\", \"BRRR\", \"BRRR\", (false, 0, 0x0000000000000000000000000000000000000000, 0x0000000000000000000000000000000000000000000000000000000000000000, []))"
      ],
      "transaction": {
        "type": "0x02",
        "from": "0x02a2012c36644f4e4b36a14ebe13e23c96f4c5b6",
        "to": "0xde8304b5399a6f37168fa1f01d43a2f7f3c43100",
        "gas": "0x9d9a1",
        "value": "0x5af3107a4000",
        "data": "0x598445930000000000000000000000000000000000000000000000000000000000000020000000000000000000000000000000000000000000000000000000000000000100000000000000000000000000000000000000000000000000000000000000a000000000000000000000000000000000000000000000000000000000000000e000000000000000000000000000000000000000000000000000000000000001200000000000000000000000000000000000000000000000000000000000000160000000000000000000000000000000000000000000000000000000000000000345544800000000000000000000000000000000000000000000000000000000000000000000000000000000000000000000000000000000000000000000000004425252520000000000000000000000000000000000000000000000000000000000000000000000000000000000000000000000000000000000000000000000044252525200000000000000000000000000000000000000000000000000000000000000000000000000000000000000000000000000000000000000000000000000000000000000000000000000000000000000000000000000000000000000000000000000000000000000000000000000000000000000000000000000000000000000000000000000000000000000000000000000000000000000000000000000000000000000000000000000000000000000000000000000000000000000a00000000000000000000000000000000000000000000000000000000000000000",
        "nonce": "0x15a",
        "accessList": []
      },
      "additionalContracts": [],
      "isFixedGasLimit": false
    }
  ],
  "receipts": [],
  "libraries": [],
  "pending": [],
  "returns": {},
  "timestamp": 1715190663,
  "chain": 84532,
  "multi": false,
  "commit": "b05b447"
}